{
  "_format": "hh-sol-artifact-1",
  "contractName": "OnlineBank",
  "sourceName": "contracts/OnlineBank.sol",
  "abi": [
    {
      "inputs": [
        {
          "internalType": "address",
          "name": "_euro",
          "type": "address"
        }
      ],
      "stateMutability": "nonpayable",
      "type": "constructor"
    },
    {
      "inputs": [],
      "name": "EnforcedPause",
      "type": "error"
    },
    {
      "inputs": [],
      "name": "ExpectedPause",
      "type": "error"
    },
    {
      "anonymous": false,
      "inputs": [
        {
          "indexed": false,
          "internalType": "address",
          "name": "account",
          "type": "address"
        }
      ],
      "name": "Paused",
      "type": "event"
    },
    {
      "anonymous": false,
      "inputs": [
        {
          "indexed": false,
          "internalType": "string",
          "name": "_type",
          "type": "string"
        },
        {
          "indexed": false,
          "internalType": "address",
          "name": "user",
          "type": "address"
        },
        {
          "indexed": false,
          "internalType": "uint256",
          "name": "amount",
          "type": "uint256"
        },
        {
          "indexed": false,
          "internalType": "uint256",
          "name": "date",
          "type": "uint256"
        },
        {
          "indexed": false,
          "internalType": "string",
          "name": "from",
          "type": "string"
        },
        {
          "indexed": false,
          "internalType": "string",
          "name": "to",
          "type": "string"
        },
        {
          "indexed": false,
          "internalType": "uint256",
          "name": "newBalance",
          "type": "uint256"
        },
        {
          "indexed": false,
          "internalType": "string",
          "name": "information",
          "type": "string"
        }
      ],
      "name": "Transaction",
      "type": "event"
    },
    {
      "anonymous": false,
      "inputs": [
        {
          "indexed": false,
          "internalType": "address",
          "name": "account",
          "type": "address"
        }
      ],
      "name": "Unpaused",
      "type": "event"
    },
    {
      "inputs": [
        {
          "internalType": "enum OnlineBank.AccountType",
          "name": "name",
          "type": "uint8"
        },
        {
          "internalType": "uint256",
          "name": "amount",
          "type": "uint256"
        }
      ],
      "name": "deposit",
      "outputs": [],
      "stateMutability": "nonpayable",
      "type": "function"
    },
    {
      "inputs": [],
      "name": "euro",
      "outputs": [
        {
          "internalType": "address",
          "name": "",
          "type": "address"
        }
      ],
      "stateMutability": "view",
      "type": "function"
    },
    {
      "inputs": [
        {
          "internalType": "address",
          "name": "_user",
          "type": "address"
        },
        {
          "internalType": "enum OnlineBank.AccountType",
          "name": "accountType",
          "type": "uint8"
        }
      ],
      "name": "getAccountBalance",
      "outputs": [
        {
          "internalType": "uint256",
          "name": "",
          "type": "uint256"
        }
      ],
      "stateMutability": "view",
      "type": "function"
    },
    {
      "inputs": [
        {
          "internalType": "address",
          "name": "_user",
          "type": "address"
        }
      ],
      "name": "getAllAccounts",
      "outputs": [
        {
          "internalType": "enum OnlineBank.AccountType[]",
          "name": "",
          "type": "uint8[]"
        }
      ],
      "stateMutability": "view",
      "type": "function"
    },
    {
      "inputs": [],
      "name": "owner",
      "outputs": [
        {
          "internalType": "address",
          "name": "",
          "type": "address"
        }
      ],
      "stateMutability": "view",
      "type": "function"
    },
    {
      "inputs": [],
      "name": "pause",
      "outputs": [],
      "stateMutability": "nonpayable",
      "type": "function"
    },
    {
      "inputs": [],
      "name": "paused",
      "outputs": [
        {
          "internalType": "bool",
          "name": "",
          "type": "bool"
        }
      ],
      "stateMutability": "view",
      "type": "function"
    },
    {
      "inputs": [
        {
          "internalType": "address",
          "name": "newOwner",
          "type": "address"
        }
      ],
      "name": "setOwner",
      "outputs": [],
      "stateMutability": "nonpayable",
      "type": "function"
    },
    {
      "inputs": [
        {
          "internalType": "enum OnlineBank.AccountType",
          "name": "from",
          "type": "uint8"
        },
        {
          "internalType": "enum OnlineBank.AccountType",
          "name": "to",
          "type": "uint8"
        },
        {
          "internalType": "uint256",
          "name": "amount",
          "type": "uint256"
        }
      ],
      "name": "transfer",
      "outputs": [],
      "stateMutability": "nonpayable",
      "type": "function"
    },
    {
      "inputs": [],
      "name": "unpause",
      "outputs": [],
      "stateMutability": "nonpayable",
      "type": "function"
    },
    {
      "inputs": [
        {
          "internalType": "address",
          "name": "",
          "type": "address"
        }
      ],
      "name": "users",
      "outputs": [
        {
          "internalType": "address",
          "name": "owner",
          "type": "address"
        },
        {
          "internalType": "uint256",
          "name": "age",
          "type": "uint256"
        }
      ],
      "stateMutability": "view",
      "type": "function"
    },
    {
      "inputs": [
        {
          "internalType": "enum OnlineBank.AccountType",
          "name": "name",
          "type": "uint8"
        },
        {
          "internalType": "uint256",
          "name": "amount",
          "type": "uint256"
        }
      ],
      "name": "withdraw",
      "outputs": [],
      "stateMutability": "nonpayable",
      "type": "function"
    }
  ],
  "bytecode": "0x60806040523480156200001157600080fd5b5060405162001d1738038062001d17833981810160405281019062000037919062000144565b60008060006101000a81548160ff02191690831515021790555033600060016101000a81548173ffffffffffffffffffffffffffffffffffffffff021916908373ffffffffffffffffffffffffffffffffffffffff16021790555080600160006101000a81548173ffffffffffffffffffffffffffffffffffffffff021916908373ffffffffffffffffffffffffffffffffffffffff1602179055505062000176565b600080fd5b600073ffffffffffffffffffffffffffffffffffffffff82169050919050565b60006200010c82620000df565b9050919050565b6200011e81620000ff565b81146200012a57600080fd5b50565b6000815190506200013e8162000113565b92915050565b6000602082840312156200015d576200015c620000da565b5b60006200016d848285016200012d565b91505092915050565b611b9180620001866000396000f3fe608060405234801561001057600080fd5b50600436106100b45760003560e01c80636900d46e116100715780636900d46e146101795780638456cb59146101955780638da5cb5b1461019f578063a87430ba146101bd578063e9ca2810146101ee578063f4d4c9d71461020c576100b4565b806313af4035146100b95780632ff9b029146100d55780633f489914146101055780633f4ba83a1461012157806345a2db5c1461012b5780635c975abb1461015b575b600080fd5b6100d360048036038101906100ce919061106e565b610228565b005b6100ef60048036038101906100ea91906110c0565b6102fc565b6040516100fc9190611119565b60405180910390f35b61011f600480360381019061011a9190611160565b610386565b005b61012961060a565b005b6101456004803603810190610140919061106e565b6106a4565b60405161015291906112c6565b60405180910390f35b610163610861565b6040516101709190611303565b60405180910390f35b610193600480360381019061018e919061131e565b610877565b005b61019d610a7a565b005b6101a7610b14565b6040516101b49190611380565b60405180910390f35b6101d760048036038101906101d2919061106e565b610b3a565b6040516101e592919061139b565b60405180910390f35b6101f6610b7e565b6040516102039190611380565b60405180910390f35b61022660048036038101906102219190611160565b610ba4565b005b600060019054906101000a900473ffffffffffffffffffffffffffffffffffffffff1673ffffffffffffffffffffffffffffffffffffffff163373ffffffffffffffffffffffffffffffffffffffff16146102b8576040517f08c379a00000000000000000000000000000000000000000000000000000000081526004016102af90611421565b60405180910390fd5b80600060016101000a81548173ffffffffffffffffffffffffffffffffffffffff021916908373ffffffffffffffffffffffffffffffffffffffff16021790555050565b600080600260008573ffffffffffffffffffffffffffffffffffffffff1673ffffffffffffffffffffffffffffffffffffffff1681526020019081526020016000209050806002016000846001811115610359576103586111cc565b5b600181111561036b5761036a6111cc565b5b81526020019081526020016000206001015491505092915050565b61038e610dab565b6000600260003373ffffffffffffffffffffffffffffffffffffffff1673ffffffffffffffffffffffffffffffffffffffff16815260200190815260200160002090508060020160008460018111156103ea576103e96111cc565b5b60018111156103fc576103fb6111cc565b5b815260200190815260200160002060010154821115610450576040517f08c379a00000000000000000000000000000000000000000000000000000000081526004016104479061148d565b60405180910390fd5b8181600201600085600181111561046a576104696111cc565b5b600181111561047c5761047b6111cc565b5b8152602001908152602001600020600101600082825461049c91906114dc565b92505081905550600160009054906101000a900473ffffffffffffffffffffffffffffffffffffffff1673ffffffffffffffffffffffffffffffffffffffff1663a9059cbb33846040518363ffffffff1660e01b815260040161050092919061139b565b6020604051808303816000875af115801561051f573d6000803e3d6000fd5b505050506040513d601f19601f82011682018060405250810190610543919061153c565b610582576040517f08c379a0000000000000000000000000000000000000000000000000000000008152600401610579906115b5565b60405180910390fd5b7f198d36ea21a57b8591a82b56e3724b4e3378abc4aee78c8800a0b853c27488a83383426105af87610dec565b8560020160008960018111156105c8576105c76111cc565b5b60018111156105da576105d96111cc565b5b8152602001908152602001600020600101546040516105fd959493929190611738565b60405180910390a1505050565b600060019054906101000a900473ffffffffffffffffffffffffffffffffffffffff1673ffffffffffffffffffffffffffffffffffffffff163373ffffffffffffffffffffffffffffffffffffffff161461069a576040517f08c379a000000000000000000000000000000000000000000000000000000000815260040161069190611421565b60405180910390fd5b6106a2610eff565b565b60606000600260008473ffffffffffffffffffffffffffffffffffffffff1673ffffffffffffffffffffffffffffffffffffffff16815260200190815260200160002090506000600267ffffffffffffffff811115610706576107056117cc565b5b6040519080825280602002602001820160405280156107345781602001602082028036833780820191505090505b5090508160020160008060018111156107505761074f6111cc565b5b6001811115610762576107616111cc565b5b815260200190815260200160002060000160009054906101000a900460ff1681600081518110610795576107946117fb565b5b602002602001019060018111156107af576107ae6111cc565b5b908160018111156107c3576107c26111cc565b5b815250508160020160006001808111156107e0576107df6111cc565b5b60018111156107f2576107f16111cc565b5b815260200190815260200160002060000160009054906101000a900460ff1681600181518110610825576108246117fb565b5b6020026020010190600181111561083f5761083e6111cc565b5b90816001811115610853576108526111cc565b5b815250508092505050919050565b60008060009054906101000a900460ff16905090565b61087f610dab565b6000600260003373ffffffffffffffffffffffffffffffffffffffff1673ffffffffffffffffffffffffffffffffffffffff16815260200190815260200160002090508060020160008560018111156108db576108da6111cc565b5b60018111156108ed576108ec6111cc565b5b815260200190815260200160002060010154821115610941576040517f08c379a00000000000000000000000000000000000000000000000000000000081526004016109389061148d565b60405180910390fd5b8181600201600086600181111561095b5761095a6111cc565b5b600181111561096d5761096c6111cc565b5b8152602001908152602001600020600101600082825461098d91906114dc565b92505081905550818160020160008560018111156109ae576109ad6111cc565b5b60018111156109c0576109bf6111cc565b5b815260200190815260200160002060010160008282546109e0919061182a565b925050819055507f198d36ea21a57b8591a82b56e3724b4e3378abc4aee78c8800a0b853c27488a8338342610a1488610dec565b610a1d88610dec565b8660020160008b6001811115610a3657610a356111cc565b5b6001811115610a4857610a476111cc565b5b815260200190815260200160002060010154604051610a6c969594939291906118f6565b60405180910390a150505050565b600060019054906101000a900473ffffffffffffffffffffffffffffffffffffffff1673ffffffffffffffffffffffffffffffffffffffff163373ffffffffffffffffffffffffffffffffffffffff1614610b0a576040517f08c379a0000000000000000000000000000000000000000000000000000000008152600401610b0190611421565b60405180910390fd5b610b12610f61565b565b600060019054906101000a900473ffffffffffffffffffffffffffffffffffffffff1681565b60026020528060005260406000206000915090508060000160009054906101000a900473ffffffffffffffffffffffffffffffffffffffff16908060010154905082565b600160009054906101000a900473ffffffffffffffffffffffffffffffffffffffff1681565b610bac610dab565b600160009054906101000a900473ffffffffffffffffffffffffffffffffffffffff1673ffffffffffffffffffffffffffffffffffffffff166323b872dd3330846040518463ffffffff1660e01b8152600401610c0b9392919061198c565b6020604051808303816000875af1158015610c2a573d6000803e3d6000fd5b505050506040513d601f19601f82011682018060405250810190610c4e919061153c565b610c8d576040517f08c379a0000000000000000000000000000000000000000000000000000000008152600401610c84906115b5565b60405180910390fd5b6000600260003373ffffffffffffffffffffffffffffffffffffffff1673ffffffffffffffffffffffffffffffffffffffff168152602001908152602001600020905081816002016000856001811115610cea57610ce96111cc565b5b6001811115610cfc57610cfb6111cc565b5b81526020019081526020016000206001016000828254610d1c919061182a565b925050819055507f198d36ea21a57b8591a82b56e3724b4e3378abc4aee78c8800a0b853c27488a8338342610d5087610dec565b856002016000896001811115610d6957610d686111cc565b5b6001811115610d7b57610d7a6111cc565b5b815260200190815260200160002060010154604051610d9e959493929190611a5b565b60405180910390a1505050565b610db3610861565b15610dea576040517fd93c066500000000000000000000000000000000000000000000000000000000815260040160405180910390fd5b565b606060006001811115610e0257610e016111cc565b5b826001811115610e1557610e146111cc565b5b03610e57576040518060400160405280600781526020017f434f5552414e54000000000000000000000000000000000000000000000000008152509050610efa565b600180811115610e6a57610e696111cc565b5b826001811115610e7d57610e7c6111cc565b5b03610ebf576040518060400160405280600781526020017f4c495652455441000000000000000000000000000000000000000000000000008152509050610efa565b6040517f08c379a0000000000000000000000000000000000000000000000000000000008152600401610ef190611b3b565b60405180910390fd5b919050565b610f07610fc3565b60008060006101000a81548160ff0219169083151502179055507f5db9ee0a495bf2e6ff9c91a7834c1ba4fdd244a5e8aa4e537bd38aeae4b073aa610f4a611003565b604051610f579190611380565b60405180910390a1565b610f69610dab565b60016000806101000a81548160ff0219169083151502179055507f62e78cea01bee320cd4e420270b5ea74000d11b0c9f74754ebdbfc544b05a258610fac611003565b604051610fb99190611380565b60405180910390a1565b610fcb610861565b611001576040517f8dfc202b00000000000000000000000000000000000000000000000000000000815260040160405180910390fd5b565b600033905090565b600080fd5b600073ffffffffffffffffffffffffffffffffffffffff82169050919050565b600061103b82611010565b9050919050565b61104b81611030565b811461105657600080fd5b50565b60008135905061106881611042565b92915050565b6000602082840312156110845761108361100b565b5b600061109284828501611059565b91505092915050565b600281106110a857600080fd5b50565b6000813590506110ba8161109b565b92915050565b600080604083850312156110d7576110d661100b565b5b60006110e585828601611059565b92505060206110f6858286016110ab565b9150509250929050565b6000819050919050565b61111381611100565b82525050565b600060208201905061112e600083018461110a565b92915050565b61113d81611100565b811461114857600080fd5b50565b60008135905061115a81611134565b92915050565b600080604083850312156111775761117661100b565b5b6000611185858286016110ab565b92505060206111968582860161114b565b9150509250929050565b600081519050919050565b600082825260208201905092915050565b6000819050602082019050919050565b7f4e487b7100000000000000000000000000000000000000000000000000000000600052602160045260246000fd5b6002811061120c5761120b6111cc565b5b50565b600081905061121d826111fb565b919050565b600061122d8261120f565b9050919050565b61123d81611222565b82525050565b600061124f8383611234565b60208301905092915050565b6000602082019050919050565b6000611273826111a0565b61127d81856111ab565b9350611288836111bc565b8060005b838110156112b95781516112a08882611243565b97506112ab8361125b565b92505060018101905061128c565b5085935050505092915050565b600060208201905081810360008301526112e08184611268565b905092915050565b60008115159050919050565b6112fd816112e8565b82525050565b600060208201905061131860008301846112f4565b92915050565b6000806000606084860312156113375761133661100b565b5b6000611345868287016110ab565b9350506020611356868287016110ab565b92505060406113678682870161114b565b9150509250925092565b61137a81611030565b82525050565b60006020820190506113956000830184611371565b92915050565b60006040820190506113b06000830185611371565b6113bd602083018461110a565b9392505050565b600082825260208201905092915050565b7f4e6f7420746865206f776e657200000000000000000000000000000000000000600082015250565b600061140b600d836113c4565b9150611416826113d5565b602082019050919050565b6000602082019050818103600083015261143a816113fe565b9050919050565b7f496e73756666696369656e742066756e64730000000000000000000000000000600082015250565b60006114776012836113c4565b915061148282611441565b602082019050919050565b600060208201905081810360008301526114a68161146a565b9050919050565b7f4e487b7100000000000000000000000000000000000000000000000000000000600052601160045260246000fd5b60006114e782611100565b91506114f283611100565b925082820390508181111561150a576115096114ad565b5b92915050565b611519816112e8565b811461152457600080fd5b50565b60008151905061153681611510565b92915050565b6000602082840312156115525761155161100b565b5b600061156084828501611527565b91505092915050565b7f4661696c656420746f207472616e7366657220455243323020746f6b656e7300600082015250565b600061159f601f836113c4565b91506115aa82611569565b602082019050919050565b600060208201905081810360008301526115ce81611592565b9050919050565b7f5769746864726177616c00000000000000000000000000000000000000000000600082015250565b600061160b600a836113c4565b9150611616826115d5565b602082019050919050565b600081519050919050565b60005b8381101561164a57808201518184015260208101905061162f565b60008484015250505050565b6000601f19601f8301169050919050565b600061167282611621565b61167c81856113c4565b935061168c81856020860161162c565b61169581611656565b840191505092915050565b7f45787465726e616c000000000000000000000000000000000000000000000000600082015250565b60006116d66008836113c4565b91506116e1826116a0565b602082019050919050565b7f5769746864726177616c2066726f6d206163636f756e74000000000000000000600082015250565b60006117226017836113c4565b915061172d826116ec565b602082019050919050565b6000610100820190508181036000830152611752816115fe565b90506117616020830188611371565b61176e604083018761110a565b61177b606083018661110a565b818103608083015261178d8185611667565b905081810360a08301526117a0816116c9565b90506117af60c083018461110a565b81810360e08301526117c081611715565b90509695505050505050565b7f4e487b7100000000000000000000000000000000000000000000000000000000600052604160045260246000fd5b7f4e487b7100000000000000000000000000000000000000000000000000000000600052603260045260246000fd5b600061183582611100565b915061184083611100565b9250828201905080821115611858576118576114ad565b5b92915050565b7f5472616e73666572000000000000000000000000000000000000000000000000600082015250565b60006118946008836113c4565b915061189f8261185e565b602082019050919050565b7f496e7465726e616c207472616e73666572000000000000000000000000000000600082015250565b60006118e06011836113c4565b91506118eb826118aa565b602082019050919050565b600061010082019050818103600083015261191081611887565b905061191f6020830189611371565b61192c604083018861110a565b611939606083018761110a565b818103608083015261194b8186611667565b905081810360a083015261195f8185611667565b905061196e60c083018461110a565b81810360e083015261197f816118d3565b9050979650505050505050565b60006060820190506119a16000830186611371565b6119ae6020830185611371565b6119bb604083018461110a565b949350505050565b7f4465706f73697400000000000000000000000000000000000000000000000000600082015250565b60006119f96007836113c4565b9150611a04826119c3565b602082019050919050565b7f4465706f73697420746f206163636f756e740000000000000000000000000000600082015250565b6000611a456012836113c4565b9150611a5082611a0f565b602082019050919050565b6000610100820190508181036000830152611a75816119ec565b9050611a846020830188611371565b611a91604083018761110a565b611a9e606083018661110a565b8181036080830152611aaf816116c9565b905081810360a0830152611ac38185611667565b9050611ad260c083018461110a565b81810360e0830152611ae381611a38565b90509695505050505050565b7f496e76616c6964204163636f756e745479706500000000000000000000000000600082015250565b6000611b256013836113c4565b9150611b3082611aef565b602082019050919050565b60006020820190508181036000830152611b5481611b18565b905091905056fea2646970667358221220f4a9eb46011b41ae9a9b230e96b5cd079e0505858a4fe1e24eabdaad2452ceb164736f6c63430008140033",
  "linkReferences": {},
  "deployedLinkReferences": {}
}